{
  "contractName": "Election",
  "abi": [
    {
      "inputs": [],
      "payable": false,
      "stateMutability": "nonpayable",
      "type": "constructor"
    },
    {
      "anonymous": false,
      "inputs": [
        {
          "indexed": true,
          "internalType": "uint256",
          "name": "_candidateId",
          "type": "uint256"
        }
      ],
      "name": "votedEvent",
      "type": "event"
    },
    {
      "constant": true,
      "inputs": [
        {
          "internalType": "uint256",
          "name": "",
          "type": "uint256"
        }
      ],
      "name": "candidates",
      "outputs": [
        {
          "internalType": "uint256",
          "name": "id",
          "type": "uint256"
        },
        {
          "internalType": "string",
          "name": "politicalParty",
          "type": "string"
        },
        {
          "internalType": "string",
          "name": "firstname",
          "type": "string"
        },
        {
          "internalType": "string",
          "name": "lastname",
          "type": "string"
        },
        {
          "internalType": "uint256",
          "name": "voteCount",
          "type": "uint256"
        }
      ],
      "payable": false,
      "stateMutability": "view",
      "type": "function"
    },
    {
      "constant": true,
      "inputs": [],
      "name": "candidatesCount",
      "outputs": [
        {
          "internalType": "uint256",
          "name": "",
          "type": "uint256"
        }
      ],
      "payable": false,
      "stateMutability": "view",
      "type": "function"
    },
    {
      "constant": false,
      "inputs": [
        {
          "internalType": "string",
          "name": "_politicalParty",
          "type": "string"
        },
        {
          "internalType": "string",
          "name": "_firstname",
          "type": "string"
        },
        {
          "internalType": "string",
          "name": "_lastname",
          "type": "string"
        }
      ],
      "name": "addCandidate",
      "outputs": [
        {
          "internalType": "bool",
          "name": "",
          "type": "bool"
        }
      ],
      "payable": false,
      "stateMutability": "nonpayable",
      "type": "function"
    },
    {
      "constant": true,
      "inputs": [
        {
          "internalType": "string",
          "name": "identityCardNumber",
          "type": "string"
        }
      ],
      "name": "hasVoted",
      "outputs": [
        {
          "internalType": "bool",
          "name": "",
          "type": "bool"
        }
      ],
      "payable": false,
      "stateMutability": "view",
      "type": "function"
    },
    {
      "constant": false,
      "inputs": [
        {
          "internalType": "uint256",
          "name": "_candidateId",
          "type": "uint256"
        },
        {
          "internalType": "string",
          "name": "_identityCardNumber",
          "type": "string"
        }
      ],
      "name": "vote",
      "outputs": [
        {
          "internalType": "bool",
          "name": "",
          "type": "bool"
        }
      ],
      "payable": false,
      "stateMutability": "nonpayable",
      "type": "function"
    }
  ],
  "bytecode": "0x608060405234801561001057600080fd5b506100c16040518060400160405280600281526020017f6f6e0000000000000000000000000000000000000000000000000000000000008152506040518060400160405280600781526020017f4f75736d616e65000000000000000000000000000000000000000000000000008152506040518060400160405280600681526020017f4e646961796500000000000000000000000000000000000000000000000000008152506100c760201b60201c565b50610236565b600080600081548092919060010191905055506040518060a0016040528060005481526020018581526020018481526020018381526020016000815250600160008054815260200190815260200160002060008201518160000155602082015181600101908051906020019061013e929190610191565b50604082015181600201908051906020019061015b929190610191565b506060820151816003019080519060200190610178929190610191565b5060808201518160040155905050600190509392505050565b828054600181600116156101000203166002900490600052602060002090601f016020900481019282601f106101d257805160ff1916838001178555610200565b82800160010185558215610200579182015b828111156101ff5782518255916020019190600101906101e4565b5b50905061020d9190610211565b5090565b61023391905b8082111561022f576000816000905550600101610217565b5090565b90565b610b42806102456000396000f3fe608060405234801561001057600080fd5b50600436106100575760003560e01c8063241084751461005c5780632d35a8a2146101395780633477ee2e1461015757806339bfeae3146102e4578063ad71f8dc146103b7575b600080fd5b61011f6004803603604081101561007257600080fd5b81019080803590602001909291908035906020019064010000000081111561009957600080fd5b8201836020820111156100ab57600080fd5b803590602001918460018302840111640100000000831117156100cd57600080fd5b91908080601f016020809104026020016040519081016040528093929190818152602001838380828437600081840152601f19601f8201169050808301925050505050505091929192905050506105b8565b604051808215151515815260200191505060405180910390f35b61014161071a565b6040518082815260200191505060405180910390f35b6101836004803603602081101561016d57600080fd5b8101908080359060200190929190505050610720565b60405180868152602001806020018060200180602001858152602001848103845288818151815260200191508051906020019080838360005b838110156101d75780820151818401526020810190506101bc565b50505050905090810190601f1680156102045780820380516001836020036101000a031916815260200191505b50848103835287818151815260200191508051906020019080838360005b8381101561023d578082015181840152602081019050610222565b50505050905090810190601f16801561026a5780820380516001836020036101000a031916815260200191505b50848103825286818151815260200191508051906020019080838360005b838110156102a3578082015181840152602081019050610288565b50505050905090810190601f1680156102d05780820380516001836020036101000a031916815260200191505b509850505050505050505060405180910390f35b61039d600480360360208110156102fa57600080fd5b810190808035906020019064010000000081111561031757600080fd5b82018360208201111561032957600080fd5b8035906020019184600183028401116401000000008311171561034b57600080fd5b91908080601f016020809104026020016040519081016040528093929190818152602001838380828437600081840152601f19601f82011690508083019250505050505050919291929050505061091e565b604051808215151515815260200191505060405180910390f35b61059e600480360360608110156103cd57600080fd5b81019080803590602001906401000000008111156103ea57600080fd5b8201836020820111156103fc57600080fd5b8035906020019184600183028401116401000000008311171561041e57600080fd5b91908080601f016020809104026020016040519081016040528093929190818152602001838380828437600081840152601f19601f8201169050808301925050505050505091929192908035906020019064010000000081111561048157600080fd5b82018360208201111561049357600080fd5b803590602001918460018302840111640100000000831117156104b557600080fd5b91908080601f016020809104026020016040519081016040528093929190818152602001838380828437600081840152601f19601f8201169050808301925050505050505091929192908035906020019064010000000081111561051857600080fd5b82018360208201111561052a57600080fd5b8035906020019184600183028401116401000000008311171561054c57600080fd5b91908080601f016020809104026020016040519081016040528093929190818152602001838380828437600081840152601f19601f82011690508083019250505050505050919291929050505061099e565b604051808215151515815260200191505060405180910390f35b60006002826040518082805190602001908083835b602083106105f057805182526020820191506020810190506020830392506105cd565b6001836020036101000a038019825116818451168082178552505050505050905001915050908152602001604051809103902060009054906101000a900460ff161561063b57600080fd5b60016002836040518082805190602001908083835b602083106106735780518252602082019150602081019050602083039250610650565b6001836020036101000a038019825116818451168082178552505050505050905001915050908152602001604051809103902060006101000a81548160ff0219169083151502179055506001600084815260200190815260200160002060040160008154809291906001019190505550827ffff3c900d938d21d0990d786e819f29b8d05c1ef587b462b939609625b684b1660405160405180910390a26001905092915050565b60005481565b6001602052806000526040600020600091509050806000015490806001018054600181600116156101000203166002900480601f0160208091040260200160405190810160405280929190818152602001828054600181600116156101000203166002900480156107d25780601f106107a7576101008083540402835291602001916107d2565b820191906000526020600020905b8154815290600101906020018083116107b557829003601f168201915b505050505090806002018054600181600116156101000203166002900480601f0160208091040260200160405190810160405280929190818152602001828054600181600116156101000203166002900480156108705780601f1061084557610100808354040283529160200191610870565b820191906000526020600020905b81548152906001019060200180831161085357829003601f168201915b505050505090806003018054600181600116156101000203166002900480601f01602080910402602001604051908101604052809291908181526020018280546001816001161561010002031660029004801561090e5780601f106108e35761010080835404028352916020019161090e565b820191906000526020600020905b8154815290600101906020018083116108f157829003601f168201915b5050505050908060040154905085565b60006002826040518082805190602001908083835b602083106109565780518252602082019150602081019050602083039250610933565b6001836020036101000a038019825116818451168082178552505050505050905001915050908152602001604051809103902060009054906101000a900460ff169050919050565b600080600081548092919060010191905055506040518060a00160405280600054815260200185815260200184815260200183815260200160008152506001600080548152602001908152602001600020600082015181600001556020820151816001019080519060200190610a15929190610a68565b506040820151816002019080519060200190610a32929190610a68565b506060820151816003019080519060200190610a4f929190610a68565b5060808201518160040155905050600190509392505050565b828054600181600116156101000203166002900490600052602060002090601f016020900481019282601f10610aa957805160ff1916838001178555610ad7565b82800160010185558215610ad7579182015b82811115610ad6578251825591602001919060010190610abb565b5b509050610ae49190610ae8565b5090565b610b0a91905b80821115610b06576000816000905550600101610aee565b5090565b9056fea265627a7a7231582037e98d5ddc7bcc44bb6cef4fc7f43db03d4f32fb1e114bbb2b774ffda3a0ad5164736f6c63430005100032",
  "source": "// SPDX-License-Identifier: MIT\r\npragma solidity >=0.4.22 <0.9.0;\r\n\r\n\r\ncontract Election {\r\n    /*\r\n     * Déclaration d'un candidat \r\n    */\r\n    struct Candidate {\r\n        uint id;\r\n        string politicalParty;\r\n        string firstname;\r\n        string lastname;\r\n        uint voteCount;\r\n    }\r\n\r\n    // Le nombre de candidats\r\n    uint public candidatesCount;\r\n  \r\n    //mapping(_KeyType =>_ValueType)\r\n    mapping(uint => Candidate) public candidates;\r\n    // Les votants  dont la clé est le CNI et valeur true or false\r\n    mapping(string => bool) voters;\r\n    event votedEvent (uint indexed _candidateId);\r\n\r\n\r\n    constructor() public {\r\n        addCandidate(\"on\", \"Ousmane\", \"Ndiaye\");\r\n    }\r\n\r\n    function addCandidate(string memory _politicalParty, \r\n    string memory _firstname, string memory _lastname) public returns (bool) {\r\n        candidatesCount++;\r\n        candidates[candidatesCount] = Candidate(candidatesCount, _politicalParty,_firstname, _lastname, 0);\r\n        return true;\r\n    }\r\n    \r\n    function hasVoted(string memory identityCardNumber) public view returns(bool) {\r\n        return voters[identityCardNumber];\r\n    }\r\n\r\n    /*function isValidVoter(string memory _identityCardNumber) public view returns(bool) {\r\n        \r\n    }*/\r\n\r\n    function vote(uint _candidateId, string memory _identityCardNumber) public returns(bool){\r\n        \r\n            require(!voters[_identityCardNumber]);\r\n            voters[_identityCardNumber] = true;\r\n            candidates[_candidateId].voteCount++;\r\n            // trigger voted event\r\n            emit votedEvent(_candidateId);\r\n            return true;\r\n    }\r\n\r\n  \r\n\r\n}",
  "sourcePath": "D:/dev/newelection/contracts/Election.sol",
  "compiler": {
    "name": "solc",
    "version": "0.5.16+commit.9c3226ce.Emscripten.clang"
  },
  "schemaVersion": "3.3.4",
  "updatedAt": "2021-04-23T12:56:16.290Z",
  "networkType": "ethereum",
  "devdoc": {
    "methods": {}
  },
  "userdoc": {
    "methods": {}
  }
}